{
  "_format": "hh-sol-artifact-1",
  "contractName": "NFT",
  "sourceName": "contracts/NFT.sol",
  "abi": [
    {
      "inputs": [],
      "stateMutability": "nonpayable",
      "type": "constructor"
    },
    {
      "anonymous": false,
      "inputs": [
        {
          "indexed": true,
          "internalType": "address",
          "name": "owner",
          "type": "address"
        },
        {
          "indexed": true,
          "internalType": "address",
          "name": "approved",
          "type": "address"
        },
        {
          "indexed": true,
          "internalType": "uint256",
          "name": "tokenId",
          "type": "uint256"
        }
      ],
      "name": "Approval",
      "type": "event"
    },
    {
      "anonymous": false,
      "inputs": [
        {
          "indexed": true,
          "internalType": "address",
          "name": "owner",
          "type": "address"
        },
        {
          "indexed": true,
          "internalType": "address",
          "name": "operator",
          "type": "address"
        },
        {
          "indexed": false,
          "internalType": "bool",
          "name": "approved",
          "type": "bool"
        }
      ],
      "name": "ApprovalForAll",
      "type": "event"
    },
    {
      "anonymous": false,
      "inputs": [
        {
          "indexed": false,
          "internalType": "uint256",
          "name": "_fromTokenId",
          "type": "uint256"
        },
        {
          "indexed": false,
          "internalType": "uint256",
          "name": "_toTokenId",
          "type": "uint256"
        }
      ],
      "name": "BatchMetadataUpdate",
      "type": "event"
    },
    {
      "anonymous": false,
      "inputs": [
        {
          "indexed": false,
          "internalType": "uint256",
          "name": "_tokenId",
          "type": "uint256"
        }
      ],
      "name": "MetadataUpdate",
      "type": "event"
    },
    {
      "anonymous": false,
      "inputs": [
        {
          "indexed": true,
          "internalType": "uint256",
          "name": "tokenId",
          "type": "uint256"
        },
        {
          "indexed": false,
          "internalType": "string",
          "name": "tokenURI",
          "type": "string"
        },
        {
          "indexed": false,
          "internalType": "address",
          "name": "marketplaceAddress",
          "type": "address"
        }
      ],
      "name": "TokenMinted",
      "type": "event"
    },
    {
      "anonymous": false,
      "inputs": [
        {
          "indexed": true,
          "internalType": "address",
          "name": "from",
          "type": "address"
        },
        {
          "indexed": true,
          "internalType": "address",
          "name": "to",
          "type": "address"
        },
        {
          "indexed": true,
          "internalType": "uint256",
          "name": "tokenId",
          "type": "uint256"
        }
      ],
      "name": "Transfer",
      "type": "event"
    },
    {
      "inputs": [
        {
          "internalType": "address",
          "name": "to",
          "type": "address"
        },
        {
          "internalType": "uint256",
          "name": "tokenId",
          "type": "uint256"
        }
      ],
      "name": "approve",
      "outputs": [],
      "stateMutability": "nonpayable",
      "type": "function"
    },
    {
      "inputs": [
        {
          "internalType": "address",
          "name": "owner",
          "type": "address"
        }
      ],
      "name": "balanceOf",
      "outputs": [
        {
          "internalType": "uint256",
          "name": "",
          "type": "uint256"
        }
      ],
      "stateMutability": "view",
      "type": "function"
    },
    {
      "inputs": [
        {
          "internalType": "uint256",
          "name": "tokenId",
          "type": "uint256"
        }
      ],
      "name": "getApproved",
      "outputs": [
        {
          "internalType": "address",
          "name": "",
          "type": "address"
        }
      ],
      "stateMutability": "view",
      "type": "function"
    },
    {
      "inputs": [
        {
          "internalType": "uint256",
          "name": "tokenId",
          "type": "uint256"
        }
      ],
      "name": "getTokenCreatorById",
      "outputs": [
        {
          "internalType": "address",
          "name": "",
          "type": "address"
        }
      ],
      "stateMutability": "view",
      "type": "function"
    },
    {
      "inputs": [],
      "name": "getTokensCreatedByMe",
      "outputs": [
        {
          "internalType": "uint256[]",
          "name": "",
          "type": "uint256[]"
        }
      ],
      "stateMutability": "view",
      "type": "function"
    },
    {
      "inputs": [],
      "name": "getTokensOwnedByMe",
      "outputs": [
        {
          "internalType": "uint256[]",
          "name": "",
          "type": "uint256[]"
        }
      ],
      "stateMutability": "view",
      "type": "function"
    },
    {
      "inputs": [
        {
          "internalType": "address",
          "name": "owner",
          "type": "address"
        },
        {
          "internalType": "address",
          "name": "operator",
          "type": "address"
        }
      ],
      "name": "isApprovedForAll",
      "outputs": [
        {
          "internalType": "bool",
          "name": "",
          "type": "bool"
        }
      ],
      "stateMutability": "view",
      "type": "function"
    },
    {
      "inputs": [
        {
          "internalType": "string",
          "name": "tokenURI",
          "type": "string"
        }
      ],
      "name": "mintToken",
      "outputs": [
        {
          "internalType": "uint256",
          "name": "",
          "type": "uint256"
        }
      ],
      "stateMutability": "nonpayable",
      "type": "function"
    },
    {
      "inputs": [],
      "name": "name",
      "outputs": [
        {
          "internalType": "string",
          "name": "",
          "type": "string"
        }
      ],
      "stateMutability": "view",
      "type": "function"
    },
    {
      "inputs": [
        {
          "internalType": "uint256",
          "name": "tokenId",
          "type": "uint256"
        }
      ],
      "name": "ownerOf",
      "outputs": [
        {
          "internalType": "address",
          "name": "",
          "type": "address"
        }
      ],
      "stateMutability": "view",
      "type": "function"
    },
    {
      "inputs": [
        {
          "internalType": "address",
          "name": "from",
          "type": "address"
        },
        {
          "internalType": "address",
          "name": "to",
          "type": "address"
        },
        {
          "internalType": "uint256",
          "name": "tokenId",
          "type": "uint256"
        }
      ],
      "name": "safeTransferFrom",
      "outputs": [],
      "stateMutability": "nonpayable",
      "type": "function"
    },
    {
      "inputs": [
        {
          "internalType": "address",
          "name": "from",
          "type": "address"
        },
        {
          "internalType": "address",
          "name": "to",
          "type": "address"
        },
        {
          "internalType": "uint256",
          "name": "tokenId",
          "type": "uint256"
        },
        {
          "internalType": "bytes",
          "name": "data",
          "type": "bytes"
        }
      ],
      "name": "safeTransferFrom",
      "outputs": [],
      "stateMutability": "nonpayable",
      "type": "function"
    },
    {
      "inputs": [
        {
          "internalType": "address",
          "name": "operator",
          "type": "address"
        },
        {
          "internalType": "bool",
          "name": "approved",
          "type": "bool"
        }
      ],
      "name": "setApprovalForAll",
      "outputs": [],
      "stateMutability": "nonpayable",
      "type": "function"
    },
    {
      "inputs": [
        {
          "internalType": "bytes4",
          "name": "interfaceId",
          "type": "bytes4"
        }
      ],
      "name": "supportsInterface",
      "outputs": [
        {
          "internalType": "bool",
          "name": "",
          "type": "bool"
        }
      ],
      "stateMutability": "view",
      "type": "function"
    },
    {
      "inputs": [],
      "name": "symbol",
      "outputs": [
        {
          "internalType": "string",
          "name": "",
          "type": "string"
        }
      ],
      "stateMutability": "view",
      "type": "function"
    },
    {
      "inputs": [
        {
          "internalType": "uint256",
          "name": "tokenId",
          "type": "uint256"
        }
      ],
      "name": "tokenURI",
      "outputs": [
        {
          "internalType": "string",
          "name": "",
          "type": "string"
        }
      ],
      "stateMutability": "view",
      "type": "function"
    },
    {
      "inputs": [
        {
          "internalType": "address",
          "name": "from",
          "type": "address"
        },
        {
          "internalType": "address",
          "name": "to",
          "type": "address"
        },
        {
          "internalType": "uint256",
          "name": "tokenId",
          "type": "uint256"
        }
      ],
      "name": "transferFrom",
      "outputs": [],
      "stateMutability": "nonpayable",
      "type": "function"
    }
  ],
  "bytecode": "0x60806040523480156200001157600080fd5b506040518060400160405280600881526020017f42616279626c75650000000000000000000000000000000000000000000000008152506040518060400160405280600581526020017f4d794e465400000000000000000000000000000000000000000000000000000081525081600090816200008f919062000365565b508060019081620000a1919062000365565b50505033600860006101000a81548173ffffffffffffffffffffffffffffffffffffffff021916908373ffffffffffffffffffffffffffffffffffffffff1602179055506200044c565b600081519050919050565b7f4e487b7100000000000000000000000000000000000000000000000000000000600052604160045260246000fd5b7f4e487b7100000000000000000000000000000000000000000000000000000000600052602260045260246000fd5b600060028204905060018216806200016d57607f821691505b60208210810362000183576200018262000125565b5b50919050565b60008190508160005260206000209050919050565b60006020601f8301049050919050565b600082821b905092915050565b600060088302620001ed7fffffffffffffffffffffffffffffffffffffffffffffffffffffffffffffffff82620001ae565b620001f98683620001ae565b95508019841693508086168417925050509392505050565b6000819050919050565b6000819050919050565b600062000246620002406200023a8462000211565b6200021b565b62000211565b9050919050565b6000819050919050565b620002628362000225565b6200027a62000271826200024d565b848454620001bb565b825550505050565b600090565b6200029162000282565b6200029e81848462000257565b505050565b5b81811015620002c657620002ba60008262000287565b600181019050620002a4565b5050565b601f8211156200031557620002df8162000189565b620002ea846200019e565b81016020851015620002fa578190505b6200031262000309856200019e565b830182620002a3565b50505b505050565b600082821c905092915050565b60006200033a600019846008026200031a565b1980831691505092915050565b600062000355838362000327565b9150826002028217905092915050565b6200037082620000eb565b67ffffffffffffffff8111156200038c576200038b620000f6565b5b62000398825462000154565b620003a5828285620002ca565b600060209050601f831160018114620003dd5760008415620003c8578287015190505b620003d4858262000347565b86555062000444565b601f198416620003ed8662000189565b60005b828110156200041757848901518255600182019150602085019450602081019050620003f0565b8683101562000437578489015162000433601f89168262000327565b8355505b6001600288020188555050505b505050505050565b613155806200045c6000396000f3fe608060405234801561001057600080fd5b506004361061010b5760003560e01c80635ba37742116100a257806395d89b411161007157806395d89b41146102de578063a22cb465146102fc578063b88d4fde14610318578063c87b56dd14610334578063e985e9c5146103645761010b565b80635ba37742146102305780636352211e1461024e57806370a082311461027e578063867d3397146102ae5761010b565b80630a989d9c116100de5780630a989d9c146101aa57806323b872dd146101c857806333eba49a146101e457806342842e0e146102145761010b565b806301ffc9a71461011057806306fdde0314610140578063081812fc1461015e578063095ea7b31461018e575b600080fd5b61012a60048036038101906101259190611e6d565b610394565b6040516101379190611eb5565b60405180910390f35b6101486103f5565b6040516101559190611f60565b60405180910390f35b61017860048036038101906101739190611fb8565b610487565b6040516101859190612026565b60405180910390f35b6101a860048036038101906101a3919061206d565b6104cd565b005b6101b26105e4565b6040516101bf919061216b565b60405180910390f35b6101e260048036038101906101dd919061218d565b6106fb565b005b6101fe60048036038101906101f99190612315565b61075b565b60405161020b919061236d565b60405180910390f35b61022e6004803603810190610229919061218d565b61086d565b005b61023861088d565b604051610245919061216b565b60405180910390f35b61026860048036038101906102639190611fb8565b610a70565b6040516102759190612026565b60405180910390f35b61029860048036038101906102939190612388565b610af6565b6040516102a5919061236d565b60405180910390f35b6102c860048036038101906102c39190611fb8565b610bad565b6040516102d59190612026565b60405180910390f35b6102e6610bea565b6040516102f39190611f60565b60405180910390f35b610316600480360381019061031191906123e1565b610c7c565b005b610332600480360381019061032d91906124c2565b610c92565b005b61034e60048036038101906103499190611fb8565b610cf4565b60405161035b9190611f60565b60405180910390f35b61037e60048036038101906103799190612545565b610e06565b60405161038b9190611eb5565b60405180910390f35b6000634906490660e01b7bffffffffffffffffffffffffffffffffffffffffffffffffffffffff1916827bffffffffffffffffffffffffffffffffffffffffffffffffffffffff191614806103ee57506103ed82610e9a565b5b9050919050565b606060008054610404906125b4565b80601f0160208091040260200160405190810160405280929190818152602001828054610430906125b4565b801561047d5780601f106104525761010080835404028352916020019161047d565b820191906000526020600020905b81548152906001019060200180831161046057829003601f168201915b5050505050905090565b600061049282610f7c565b6004600083815260200190815260200160002060009054906101000a900473ffffffffffffffffffffffffffffffffffffffff169050919050565b60006104d882610a70565b90508073ffffffffffffffffffffffffffffffffffffffff168373ffffffffffffffffffffffffffffffffffffffff1603610548576040517f08c379a000000000000000000000000000000000000000000000000000000000815260040161053f90612657565b60405180910390fd5b8073ffffffffffffffffffffffffffffffffffffffff16610567610fc7565b73ffffffffffffffffffffffffffffffffffffffff161480610596575061059581610590610fc7565b610e06565b5b6105d5576040517f08c379a00000000000000000000000000000000000000000000000000000000081526004016105cc906126e9565b60405180910390fd5b6105df8383610fcf565b505050565b606060006105f26007611088565b905060006105ff33610af6565b905060008167ffffffffffffffff81111561061d5761061c6121ea565b5b60405190808252806020026020018201604052801561064b5781602001602082028036833780820191505090505b5090506000805b848110156106f05760006001826106699190612738565b90503373ffffffffffffffffffffffffffffffffffffffff1661068b82610a70565b73ffffffffffffffffffffffffffffffffffffffff16146106ac57506106dd565b808484815181106106c0576106bf61276c565b5b6020026020010181815250506001836106d99190612738565b9250505b80806106e89061279b565b915050610652565b508194505050505090565b61070c610706610fc7565b82611096565b61074b576040517f08c379a000000000000000000000000000000000000000000000000000000000815260040161074290612855565b60405180910390fd5b61075683838361112b565b505050565b60006107676007611424565b60006107736007611088565b905061077f338261143a565b336009600083815260200190815260200160002060006101000a81548173ffffffffffffffffffffffffffffffffffffffff021916908373ffffffffffffffffffffffffffffffffffffffff1602179055506107db8184611657565b610808600860009054906101000a900473ffffffffffffffffffffffffffffffffffffffff166001610c7c565b807f9ef9d09a98563c827f651a028105395cc17f94ef23eb26b70d241439386a62f484600860009054906101000a900473ffffffffffffffffffffffffffffffffffffffff1660405161085c929190612875565b60405180910390a280915050919050565b61088883838360405180602001604052806000815250610c92565b505050565b6060600061089b6007611088565b90506000805b8281101561094a5760006001826108b89190612738565b90503373ffffffffffffffffffffffffffffffffffffffff166009600083815260200190815260200160002060009054906101000a900473ffffffffffffffffffffffffffffffffffffffff1673ffffffffffffffffffffffffffffffffffffffff16146109265750610937565b6001836109339190612738565b9250505b80806109429061279b565b9150506108a1565b5060008167ffffffffffffffff811115610967576109666121ea565b5b6040519080825280602002602001820160405280156109955781602001602082028036833780820191505090505b5090506000805b84811015610a655760006001826109b39190612738565b90503373ffffffffffffffffffffffffffffffffffffffff166009600083815260200190815260200160002060009054906101000a900473ffffffffffffffffffffffffffffffffffffffff1673ffffffffffffffffffffffffffffffffffffffff1614610a215750610a52565b80848481518110610a3557610a3461276c565b5b602002602001018181525050600183610a4e9190612738565b9250505b8080610a5d9061279b565b91505061099c565b508194505050505090565b600080610a7c836116fb565b9050600073ffffffffffffffffffffffffffffffffffffffff168173ffffffffffffffffffffffffffffffffffffffff1603610aed576040517f08c379a0000000000000000000000000000000000000000000000000000000008152600401610ae4906128f1565b60405180910390fd5b80915050919050565b60008073ffffffffffffffffffffffffffffffffffffffff168273ffffffffffffffffffffffffffffffffffffffff1603610b66576040517f08c379a0000000000000000000000000000000000000000000000000000000008152600401610b5d90612983565b60405180910390fd5b600360008373ffffffffffffffffffffffffffffffffffffffff1673ffffffffffffffffffffffffffffffffffffffff168152602001908152602001600020549050919050565b60006009600083815260200190815260200160002060009054906101000a900473ffffffffffffffffffffffffffffffffffffffff169050919050565b606060018054610bf9906125b4565b80601f0160208091040260200160405190810160405280929190818152602001828054610c25906125b4565b8015610c725780601f10610c4757610100808354040283529160200191610c72565b820191906000526020600020905b815481529060010190602001808311610c5557829003601f168201915b5050505050905090565b610c8e610c87610fc7565b8383611738565b5050565b610ca3610c9d610fc7565b83611096565b610ce2576040517f08c379a0000000000000000000000000000000000000000000000000000000008152600401610cd990612855565b60405180910390fd5b610cee848484846118a4565b50505050565b6060610cff82610f7c565b6000600660008481526020019081526020016000208054610d1f906125b4565b80601f0160208091040260200160405190810160405280929190818152602001828054610d4b906125b4565b8015610d985780601f10610d6d57610100808354040283529160200191610d98565b820191906000526020600020905b815481529060010190602001808311610d7b57829003601f168201915b505050505090506000610da9611900565b90506000815103610dbe578192505050610e01565b600082511115610df3578082604051602001610ddb9291906129df565b60405160208183030381529060405292505050610e01565b610dfc84611917565b925050505b919050565b6000600560008473ffffffffffffffffffffffffffffffffffffffff1673ffffffffffffffffffffffffffffffffffffffff16815260200190815260200160002060008373ffffffffffffffffffffffffffffffffffffffff1673ffffffffffffffffffffffffffffffffffffffff16815260200190815260200160002060009054906101000a900460ff16905092915050565b60007f80ac58cd000000000000000000000000000000000000000000000000000000007bffffffffffffffffffffffffffffffffffffffffffffffffffffffff1916827bffffffffffffffffffffffffffffffffffffffffffffffffffffffff19161480610f6557507f5b5e139f000000000000000000000000000000000000000000000000000000007bffffffffffffffffffffffffffffffffffffffffffffffffffffffff1916827bffffffffffffffffffffffffffffffffffffffffffffffffffffffff1916145b80610f755750610f748261197f565b5b9050919050565b610f85816119e9565b610fc4576040517f08c379a0000000000000000000000000000000000000000000000000000000008152600401610fbb906128f1565b60405180910390fd5b50565b600033905090565b816004600083815260200190815260200160002060006101000a81548173ffffffffffffffffffffffffffffffffffffffff021916908373ffffffffffffffffffffffffffffffffffffffff160217905550808273ffffffffffffffffffffffffffffffffffffffff1661104283610a70565b73ffffffffffffffffffffffffffffffffffffffff167f8c5be1e5ebec7d5bd14f71427d1e84f3dd0314c0f7b2291e5b200ac8c7c3b92560405160405180910390a45050565b600081600001549050919050565b6000806110a283610a70565b90508073ffffffffffffffffffffffffffffffffffffffff168473ffffffffffffffffffffffffffffffffffffffff1614806110e457506110e38185610e06565b5b8061112257508373ffffffffffffffffffffffffffffffffffffffff1661110a84610487565b73ffffffffffffffffffffffffffffffffffffffff16145b91505092915050565b8273ffffffffffffffffffffffffffffffffffffffff1661114b82610a70565b73ffffffffffffffffffffffffffffffffffffffff16146111a1576040517f08c379a000000000000000000000000000000000000000000000000000000000815260040161119890612a75565b60405180910390fd5b600073ffffffffffffffffffffffffffffffffffffffff168273ffffffffffffffffffffffffffffffffffffffff1603611210576040517f08c379a000000000000000000000000000000000000000000000000000000000815260040161120790612b07565b60405180910390fd5b61121d8383836001611a2a565b8273ffffffffffffffffffffffffffffffffffffffff1661123d82610a70565b73ffffffffffffffffffffffffffffffffffffffff1614611293576040517f08c379a000000000000000000000000000000000000000000000000000000000815260040161128a90612a75565b60405180910390fd5b6004600082815260200190815260200160002060006101000a81549073ffffffffffffffffffffffffffffffffffffffff02191690556001600360008573ffffffffffffffffffffffffffffffffffffffff1673ffffffffffffffffffffffffffffffffffffffff168152602001908152602001600020600082825403925050819055506001600360008473ffffffffffffffffffffffffffffffffffffffff1673ffffffffffffffffffffffffffffffffffffffff16815260200190815260200160002060008282540192505081905550816002600083815260200190815260200160002060006101000a81548173ffffffffffffffffffffffffffffffffffffffff021916908373ffffffffffffffffffffffffffffffffffffffff160217905550808273ffffffffffffffffffffffffffffffffffffffff168473ffffffffffffffffffffffffffffffffffffffff167fddf252ad1be2c89b69c2b068fc378daa952ba7f163c4a11628f55a4df523b3ef60405160405180910390a461141f8383836001611a30565b505050565b6001816000016000828254019250508190555050565b600073ffffffffffffffffffffffffffffffffffffffff168273ffffffffffffffffffffffffffffffffffffffff16036114a9576040517f08c379a00000000000000000000000000000000000000000000000000000000081526004016114a090612b73565b60405180910390fd5b6114b2816119e9565b156114f2576040517f08c379a00000000000000000000000000000000000000000000000000000000081526004016114e990612bdf565b60405180910390fd5b611500600083836001611a2a565b611509816119e9565b15611549576040517f08c379a000000000000000000000000000000000000000000000000000000000815260040161154090612bdf565b60405180910390fd5b6001600360008473ffffffffffffffffffffffffffffffffffffffff1673ffffffffffffffffffffffffffffffffffffffff16815260200190815260200160002060008282540192505081905550816002600083815260200190815260200160002060006101000a81548173ffffffffffffffffffffffffffffffffffffffff021916908373ffffffffffffffffffffffffffffffffffffffff160217905550808273ffffffffffffffffffffffffffffffffffffffff16600073ffffffffffffffffffffffffffffffffffffffff167fddf252ad1be2c89b69c2b068fc378daa952ba7f163c4a11628f55a4df523b3ef60405160405180910390a4611653600083836001611a30565b5050565b611660826119e9565b61169f576040517f08c379a000000000000000000000000000000000000000000000000000000000815260040161169690612c71565b60405180910390fd5b806006600084815260200190815260200160002090816116bf9190612e3d565b507ff8e1a15aba9398e019f0b49df1a4fde98ee17ae345cb5f6b5e2c27f5033e8ce7826040516116ef919061236d565b60405180910390a15050565b60006002600083815260200190815260200160002060009054906101000a900473ffffffffffffffffffffffffffffffffffffffff169050919050565b8173ffffffffffffffffffffffffffffffffffffffff168373ffffffffffffffffffffffffffffffffffffffff16036117a6576040517f08c379a000000000000000000000000000000000000000000000000000000000815260040161179d90612f5b565b60405180910390fd5b80600560008573ffffffffffffffffffffffffffffffffffffffff1673ffffffffffffffffffffffffffffffffffffffff16815260200190815260200160002060008473ffffffffffffffffffffffffffffffffffffffff1673ffffffffffffffffffffffffffffffffffffffff16815260200190815260200160002060006101000a81548160ff0219169083151502179055508173ffffffffffffffffffffffffffffffffffffffff168373ffffffffffffffffffffffffffffffffffffffff167f17307eab39ab6107e8899845ad3d59bd9653f200f220920489ca2b5937696c31836040516118979190611eb5565b60405180910390a3505050565b6118af84848461112b565b6118bb84848484611a36565b6118fa576040517f08c379a00000000000000000000000000000000000000000000000000000000081526004016118f190612fed565b60405180910390fd5b50505050565b606060405180602001604052806000815250905090565b606061192282610f7c565b600061192c611900565b9050600081511161194c5760405180602001604052806000815250611977565b8061195684611bbd565b6040516020016119679291906129df565b6040516020818303038152906040525b915050919050565b60007f01ffc9a7000000000000000000000000000000000000000000000000000000007bffffffffffffffffffffffffffffffffffffffffffffffffffffffff1916827bffffffffffffffffffffffffffffffffffffffffffffffffffffffff1916149050919050565b60008073ffffffffffffffffffffffffffffffffffffffff16611a0b836116fb565b73ffffffffffffffffffffffffffffffffffffffff1614159050919050565b50505050565b50505050565b6000611a578473ffffffffffffffffffffffffffffffffffffffff16611c8b565b15611bb0578373ffffffffffffffffffffffffffffffffffffffff1663150b7a02611a80610fc7565b8786866040518563ffffffff1660e01b8152600401611aa29493929190613062565b6020604051808303816000875af1925050508015611ade57506040513d601f19601f82011682018060405250810190611adb91906130c3565b60015b611b60573d8060008114611b0e576040519150601f19603f3d011682016040523d82523d6000602084013e611b13565b606091505b506000815103611b58576040517f08c379a0000000000000000000000000000000000000000000000000000000008152600401611b4f90612fed565b60405180910390fd5b805181602001fd5b63150b7a0260e01b7bffffffffffffffffffffffffffffffffffffffffffffffffffffffff1916817bffffffffffffffffffffffffffffffffffffffffffffffffffffffff191614915050611bb5565b600190505b949350505050565b606060006001611bcc84611cae565b01905060008167ffffffffffffffff811115611beb57611bea6121ea565b5b6040519080825280601f01601f191660200182016040528015611c1d5781602001600182028036833780820191505090505b509050600082602001820190505b600115611c80578080600190039150507f3031323334353637383961626364656600000000000000000000000000000000600a86061a8153600a8581611c7457611c736130f0565b5b04945060008503611c2b575b819350505050919050565b6000808273ffffffffffffffffffffffffffffffffffffffff163b119050919050565b600080600090507a184f03e93ff9f4daa797ed6e38ed64bf6a1f0100000000000000008310611d0c577a184f03e93ff9f4daa797ed6e38ed64bf6a1f0100000000000000008381611d0257611d016130f0565b5b0492506040810190505b6d04ee2d6d415b85acef81000000008310611d49576d04ee2d6d415b85acef81000000008381611d3f57611d3e6130f0565b5b0492506020810190505b662386f26fc100008310611d7857662386f26fc100008381611d6e57611d6d6130f0565b5b0492506010810190505b6305f5e1008310611da1576305f5e1008381611d9757611d966130f0565b5b0492506008810190505b6127108310611dc6576127108381611dbc57611dbb6130f0565b5b0492506004810190505b60648310611de95760648381611ddf57611dde6130f0565b5b0492506002810190505b600a8310611df8576001810190505b80915050919050565b6000604051905090565b600080fd5b600080fd5b60007fffffffff0000000000000000000000000000000000000000000000000000000082169050919050565b611e4a81611e15565b8114611e5557600080fd5b50565b600081359050611e6781611e41565b92915050565b600060208284031215611e8357611e82611e0b565b5b6000611e9184828501611e58565b91505092915050565b60008115159050919050565b611eaf81611e9a565b82525050565b6000602082019050611eca6000830184611ea6565b92915050565b600081519050919050565b600082825260208201905092915050565b60005b83811015611f0a578082015181840152602081019050611eef565b60008484015250505050565b6000601f19601f8301169050919050565b6000611f3282611ed0565b611f3c8185611edb565b9350611f4c818560208601611eec565b611f5581611f16565b840191505092915050565b60006020820190508181036000830152611f7a8184611f27565b905092915050565b6000819050919050565b611f9581611f82565b8114611fa057600080fd5b50565b600081359050611fb281611f8c565b92915050565b600060208284031215611fce57611fcd611e0b565b5b6000611fdc84828501611fa3565b91505092915050565b600073ffffffffffffffffffffffffffffffffffffffff82169050919050565b600061201082611fe5565b9050919050565b61202081612005565b82525050565b600060208201905061203b6000830184612017565b92915050565b61204a81612005565b811461205557600080fd5b50565b60008135905061206781612041565b92915050565b6000806040838503121561208457612083611e0b565b5b600061209285828601612058565b92505060206120a385828601611fa3565b9150509250929050565b600081519050919050565b600082825260208201905092915050565b6000819050602082019050919050565b6120e281611f82565b82525050565b60006120f483836120d9565b60208301905092915050565b6000602082019050919050565b6000612118826120ad565b61212281856120b8565b935061212d836120c9565b8060005b8381101561215e57815161214588826120e8565b975061215083612100565b925050600181019050612131565b5085935050505092915050565b60006020820190508181036000830152612185818461210d565b905092915050565b6000806000606084860312156121a6576121a5611e0b565b5b60006121b486828701612058565b93505060206121c586828701612058565b92505060406121d686828701611fa3565b9150509250925092565b600080fd5b600080fd5b7f4e487b7100000000000000000000000000000000000000000000000000000000600052604160045260246000fd5b61222282611f16565b810181811067ffffffffffffffff82111715612241576122406121ea565b5b80604052505050565b6000612254611e01565b90506122608282612219565b919050565b600067ffffffffffffffff8211156122805761227f6121ea565b5b61228982611f16565b9050602081019050919050565b82818337600083830152505050565b60006122b86122b384612265565b61224a565b9050828152602081018484840111156122d4576122d36121e5565b5b6122df848285612296565b509392505050565b600082601f8301126122fc576122fb6121e0565b5b813561230c8482602086016122a5565b91505092915050565b60006020828403121561232b5761232a611e0b565b5b600082013567ffffffffffffffff81111561234957612348611e10565b5b612355848285016122e7565b91505092915050565b61236781611f82565b82525050565b6000602082019050612382600083018461235e565b92915050565b60006020828403121561239e5761239d611e0b565b5b60006123ac84828501612058565b91505092915050565b6123be81611e9a565b81146123c957600080fd5b50565b6000813590506123db816123b5565b92915050565b600080604083850312156123f8576123f7611e0b565b5b600061240685828601612058565b9250506020612417858286016123cc565b9150509250929050565b600067ffffffffffffffff82111561243c5761243b6121ea565b5b61244582611f16565b9050602081019050919050565b600061246561246084612421565b61224a565b905082815260208101848484011115612481576124806121e5565b5b61248c848285612296565b509392505050565b600082601f8301126124a9576124a86121e0565b5b81356124b9848260208601612452565b91505092915050565b600080600080608085870312156124dc576124db611e0b565b5b60006124ea87828801612058565b94505060206124fb87828801612058565b935050604061250c87828801611fa3565b925050606085013567ffffffffffffffff81111561252d5761252c611e10565b5b61253987828801612494565b91505092959194509250565b6000806040838503121561255c5761255b611e0b565b5b600061256a85828601612058565b925050602061257b85828601612058565b9150509250929050565b7f4e487b7100000000000000000000000000000000000000000000000000000000600052602260045260246000fd5b600060028204905060018216806125cc57607f821691505b6020821081036125df576125de612585565b5b50919050565b7f4552433732313a20617070726f76616c20746f2063757272656e74206f776e6560008201527f7200000000000000000000000000000000000000000000000000000000000000602082015250565b6000612641602183611edb565b915061264c826125e5565b604082019050919050565b6000602082019050818103600083015261267081612634565b9050919050565b7f4552433732313a20617070726f76652063616c6c6572206973206e6f7420746f60008201527f6b656e206f776e6572206f7220617070726f76656420666f7220616c6c000000602082015250565b60006126d3603d83611edb565b91506126de82612677565b604082019050919050565b60006020820190508181036000830152612702816126c6565b9050919050565b7f4e487b7100000000000000000000000000000000000000000000000000000000600052601160045260246000fd5b600061274382611f82565b915061274e83611f82565b925082820190508082111561276657612765612709565b5b92915050565b7f4e487b7100000000000000000000000000000000000000000000000000000000600052603260045260246000fd5b60006127a682611f82565b91507fffffffffffffffffffffffffffffffffffffffffffffffffffffffffffffffff82036127d8576127d7612709565b5b600182019050919050565b7f4552433732313a2063616c6c6572206973206e6f7420746f6b656e206f776e6560008201527f72206f7220617070726f76656400000000000000000000000000000000000000602082015250565b600061283f602d83611edb565b915061284a826127e3565b604082019050919050565b6000602082019050818103600083015261286e81612832565b9050919050565b6000604082019050818103600083015261288f8185611f27565b905061289e6020830184612017565b9392505050565b7f4552433732313a20696e76616c696420746f6b656e2049440000000000000000600082015250565b60006128db601883611edb565b91506128e6826128a5565b602082019050919050565b6000602082019050818103600083015261290a816128ce565b9050919050565b7f4552433732313a2061646472657373207a65726f206973206e6f74206120766160008201527f6c6964206f776e65720000000000000000000000000000000000000000000000602082015250565b600061296d602983611edb565b915061297882612911565b604082019050919050565b6000602082019050818103600083015261299c81612960565b9050919050565b600081905092915050565b60006129b982611ed0565b6129c381856129a3565b93506129d3818560208601611eec565b80840191505092915050565b60006129eb82856129ae565b91506129f782846129ae565b91508190509392505050565b7f4552433732313a207472616e736665722066726f6d20696e636f72726563742060008201527f6f776e6572000000000000000000000000000000000000000000000000000000602082015250565b6000612a5f602583611edb565b9150612a6a82612a03565b604082019050919050565b60006020820190508181036000830152612a8e81612a52565b9050919050565b7f4552433732313a207472616e7366657220746f20746865207a65726f2061646460008201527f7265737300000000000000000000000000000000000000000000000000000000602082015250565b6000612af1602483611edb565b9150612afc82612a95565b604082019050919050565b60006020820190508181036000830152612b2081612ae4565b9050919050565b7f4552433732313a206d696e7420746f20746865207a65726f2061646472657373600082015250565b6000612b5d602083611edb565b9150612b6882612b27565b602082019050919050565b60006020820190508181036000830152612b8c81612b50565b9050919050565b7f4552433732313a20746f6b656e20616c7265616479206d696e74656400000000600082015250565b6000612bc9601c83611edb565b9150612bd482612b93565b602082019050919050565b60006020820190508181036000830152612bf881612bbc565b9050919050565b7f45524337323155524953746f726167653a2055524920736574206f66206e6f6e60008201527f6578697374656e7420746f6b656e000000000000000000000000000000000000602082015250565b6000612c5b602e83611edb565b9150612c6682612bff565b604082019050919050565b60006020820190508181036000830152612c8a81612c4e565b9050919050565b60008190508160005260206000209050919050565b60006020601f8301049050919050565b600082821b905092915050565b600060088302612cf37fffffffffffffffffffffffffffffffffffffffffffffffffffffffffffffffff82612cb6565b612cfd8683612cb6565b95508019841693508086168417925050509392505050565b6000819050919050565b6000612d3a612d35612d3084611f82565b612d15565b611f82565b9050919050565b6000819050919050565b612d5483612d1f565b612d68612d6082612d41565b848454612cc3565b825550505050565b600090565b612d7d612d70565b612d88818484612d4b565b505050565b5b81811015612dac57612da1600082612d75565b600181019050612d8e565b5050565b601f821115612df157612dc281612c91565b612dcb84612ca6565b81016020851015612dda578190505b612dee612de685612ca6565b830182612d8d565b50505b505050565b600082821c905092915050565b6000612e1460001984600802612df6565b1980831691505092915050565b6000612e2d8383612e03565b9150826002028217905092915050565b612e4682611ed0565b67ffffffffffffffff811115612e5f57612e5e6121ea565b5b612e6982546125b4565b612e74828285612db0565b600060209050601f831160018114612ea75760008415612e95578287015190505b612e9f8582612e21565b865550612f07565b601f198416612eb586612c91565b60005b82811015612edd57848901518255600182019150602085019450602081019050612eb8565b86831015612efa5784890151612ef6601f891682612e03565b8355505b6001600288020188555050505b505050505050565b7f4552433732313a20617070726f766520746f2063616c6c657200000000000000600082015250565b6000612f45601983611edb565b9150612f5082612f0f565b602082019050919050565b60006020820190508181036000830152612f7481612f38565b9050919050565b7f4552433732313a207472616e7366657220746f206e6f6e20455243373231526560008201527f63656976657220696d706c656d656e7465720000000000000000000000000000602082015250565b6000612fd7603283611edb565b9150612fe282612f7b565b604082019050919050565b6000602082019050818103600083015261300681612fca565b9050919050565b600081519050919050565b600082825260208201905092915050565b60006130348261300d565b61303e8185613018565b935061304e818560208601611eec565b61305781611f16565b840191505092915050565b60006080820190506130776000830187612017565b6130846020830186612017565b613091604083018561235e565b81810360608301526130a38184613029565b905095945050505050565b6000815190506130bd81611e41565b92915050565b6000602082840312156130d9576130d8611e0b565b5b60006130e7848285016130ae565b91505092915050565b7f4e487b7100000000000000000000000000000000000000000000000000000000600052601260045260246000fdfea2646970667358221220c52f5e0e3f41ea5ec1bbd29c0d8acf54b7134bfbea90da88d64ace563203012564736f6c63430008130033",
  "linkReferences": {},
  "deployedLinkReferences": {}
}