{
  "_format": "hh-sol-artifact-1",
  "contractName": "Marketplace",
  "sourceName": "contracts/NFT-Marketplace.sol",
  "abi": [
    {
      "inputs": [],
      "stateMutability": "nonpayable",
      "type": "constructor"
    },
    {
      "anonymous": false,
      "inputs": [
        {
          "indexed": true,
          "internalType": "uint256",
          "name": "marketItemId",
          "type": "uint256"
        },
        {
          "indexed": true,
          "internalType": "address",
          "name": "nftContract",
          "type": "address"
        },
        {
          "indexed": true,
          "internalType": "uint256",
          "name": "tokenId",
          "type": "uint256"
        },
        {
          "indexed": false,
          "internalType": "address",
          "name": "creator",
          "type": "address"
        },
        {
          "indexed": false,
          "internalType": "address",
          "name": "seller",
          "type": "address"
        },
        {
          "indexed": false,
          "internalType": "address",
          "name": "owner",
          "type": "address"
        },
        {
          "indexed": false,
          "internalType": "string",
          "name": "name",
          "type": "string"
        },
        {
          "indexed": false,
          "internalType": "uint256",
          "name": "price",
          "type": "uint256"
        },
        {
          "indexed": false,
          "internalType": "uint256",
          "name": "_type",
          "type": "uint256"
        },
        {
          "indexed": false,
          "internalType": "bool",
          "name": "sold",
          "type": "bool"
        },
        {
          "indexed": false,
          "internalType": "bool",
          "name": "canceled",
          "type": "bool"
        }
      ],
      "name": "MarketItemCreated",
      "type": "event"
    },
    {
      "inputs": [
        {
          "internalType": "address",
          "name": "nftContractAddress",
          "type": "address"
        },
        {
          "internalType": "uint256",
          "name": "marketItemId",
          "type": "uint256"
        }
      ],
      "name": "cancelMarketItem",
      "outputs": [],
      "stateMutability": "payable",
      "type": "function"
    },
    {
      "inputs": [
        {
          "internalType": "address",
          "name": "nftContractAddress",
          "type": "address"
        },
        {
          "internalType": "uint256",
          "name": "tokenId",
          "type": "uint256"
        },
        {
          "internalType": "uint256",
          "name": "price",
          "type": "uint256"
        },
        {
          "internalType": "uint256",
          "name": "_type",
          "type": "uint256"
        }
      ],
      "name": "createMarketItem",
      "outputs": [
        {
          "internalType": "uint256",
          "name": "",
          "type": "uint256"
        }
      ],
      "stateMutability": "payable",
      "type": "function"
    },
    {
      "inputs": [
        {
          "internalType": "address",
          "name": "nftContractAddress",
          "type": "address"
        },
        {
          "internalType": "uint256",
          "name": "marketItemId",
          "type": "uint256"
        }
      ],
      "name": "createMarketSale",
      "outputs": [],
      "stateMutability": "payable",
      "type": "function"
    },
    {
      "inputs": [],
      "name": "fetchAvailableMarketItems",
      "outputs": [
        {
          "components": [
            {
              "internalType": "uint256",
              "name": "marketItemId",
              "type": "uint256"
            },
            {
              "internalType": "address",
              "name": "nftContractAddress",
              "type": "address"
            },
            {
              "internalType": "uint256",
              "name": "tokenId",
              "type": "uint256"
            },
            {
              "internalType": "address payable",
              "name": "creator",
              "type": "address"
            },
            {
              "internalType": "address payable",
              "name": "seller",
              "type": "address"
            },
            {
              "internalType": "address payable",
              "name": "owner",
              "type": "address"
            },
            {
              "internalType": "string",
              "name": "name",
              "type": "string"
            },
            {
              "internalType": "uint256",
              "name": "price",
              "type": "uint256"
            },
            {
              "internalType": "uint256",
              "name": "_type",
              "type": "uint256"
            },
            {
              "internalType": "bool",
              "name": "sold",
              "type": "bool"
            },
            {
              "internalType": "bool",
              "name": "canceled",
              "type": "bool"
            }
          ],
          "internalType": "struct Marketplace.MarketItem[]",
          "name": "",
          "type": "tuple[]"
        }
      ],
      "stateMutability": "view",
      "type": "function"
    },
    {
      "inputs": [
        {
          "internalType": "string",
          "name": "_addressProperty",
          "type": "string"
        }
      ],
      "name": "fetchMarketItemsByAddressProperty",
      "outputs": [
        {
          "components": [
            {
              "internalType": "uint256",
              "name": "marketItemId",
              "type": "uint256"
            },
            {
              "internalType": "address",
              "name": "nftContractAddress",
              "type": "address"
            },
            {
              "internalType": "uint256",
              "name": "tokenId",
              "type": "uint256"
            },
            {
              "internalType": "address payable",
              "name": "creator",
              "type": "address"
            },
            {
              "internalType": "address payable",
              "name": "seller",
              "type": "address"
            },
            {
              "internalType": "address payable",
              "name": "owner",
              "type": "address"
            },
            {
              "internalType": "string",
              "name": "name",
              "type": "string"
            },
            {
              "internalType": "uint256",
              "name": "price",
              "type": "uint256"
            },
            {
              "internalType": "uint256",
              "name": "_type",
              "type": "uint256"
            },
            {
              "internalType": "bool",
              "name": "sold",
              "type": "bool"
            },
            {
              "internalType": "bool",
              "name": "canceled",
              "type": "bool"
            }
          ],
          "internalType": "struct Marketplace.MarketItem[]",
          "name": "",
          "type": "tuple[]"
        }
      ],
      "stateMutability": "view",
      "type": "function"
    },
    {
      "inputs": [
        {
          "internalType": "uint256",
          "name": "Type",
          "type": "uint256"
        }
      ],
      "name": "fetchMarketItemsByType",
      "outputs": [
        {
          "components": [
            {
              "internalType": "uint256",
              "name": "marketItemId",
              "type": "uint256"
            },
            {
              "internalType": "address",
              "name": "nftContractAddress",
              "type": "address"
            },
            {
              "internalType": "uint256",
              "name": "tokenId",
              "type": "uint256"
            },
            {
              "internalType": "address payable",
              "name": "creator",
              "type": "address"
            },
            {
              "internalType": "address payable",
              "name": "seller",
              "type": "address"
            },
            {
              "internalType": "address payable",
              "name": "owner",
              "type": "address"
            },
            {
              "internalType": "string",
              "name": "name",
              "type": "string"
            },
            {
              "internalType": "uint256",
              "name": "price",
              "type": "uint256"
            },
            {
              "internalType": "uint256",
              "name": "_type",
              "type": "uint256"
            },
            {
              "internalType": "bool",
              "name": "sold",
              "type": "bool"
            },
            {
              "internalType": "bool",
              "name": "canceled",
              "type": "bool"
            }
          ],
          "internalType": "struct Marketplace.MarketItem[]",
          "name": "",
          "type": "tuple[]"
        }
      ],
      "stateMutability": "view",
      "type": "function"
    },
    {
      "inputs": [],
      "name": "fetchOwnedMarketItems",
      "outputs": [
        {
          "components": [
            {
              "internalType": "uint256",
              "name": "marketItemId",
              "type": "uint256"
            },
            {
              "internalType": "address",
              "name": "nftContractAddress",
              "type": "address"
            },
            {
              "internalType": "uint256",
              "name": "tokenId",
              "type": "uint256"
            },
            {
              "internalType": "address payable",
              "name": "creator",
              "type": "address"
            },
            {
              "internalType": "address payable",
              "name": "seller",
              "type": "address"
            },
            {
              "internalType": "address payable",
              "name": "owner",
              "type": "address"
            },
            {
              "internalType": "string",
              "name": "name",
              "type": "string"
            },
            {
              "internalType": "uint256",
              "name": "price",
              "type": "uint256"
            },
            {
              "internalType": "uint256",
              "name": "_type",
              "type": "uint256"
            },
            {
              "internalType": "bool",
              "name": "sold",
              "type": "bool"
            },
            {
              "internalType": "bool",
              "name": "canceled",
              "type": "bool"
            }
          ],
          "internalType": "struct Marketplace.MarketItem[]",
          "name": "",
          "type": "tuple[]"
        }
      ],
      "stateMutability": "view",
      "type": "function"
    },
    {
      "inputs": [],
      "name": "fetchSellingMarketItems",
      "outputs": [
        {
          "components": [
            {
              "internalType": "uint256",
              "name": "marketItemId",
              "type": "uint256"
            },
            {
              "internalType": "address",
              "name": "nftContractAddress",
              "type": "address"
            },
            {
              "internalType": "uint256",
              "name": "tokenId",
              "type": "uint256"
            },
            {
              "internalType": "address payable",
              "name": "creator",
              "type": "address"
            },
            {
              "internalType": "address payable",
              "name": "seller",
              "type": "address"
            },
            {
              "internalType": "address payable",
              "name": "owner",
              "type": "address"
            },
            {
              "internalType": "string",
              "name": "name",
              "type": "string"
            },
            {
              "internalType": "uint256",
              "name": "price",
              "type": "uint256"
            },
            {
              "internalType": "uint256",
              "name": "_type",
              "type": "uint256"
            },
            {
              "internalType": "bool",
              "name": "sold",
              "type": "bool"
            },
            {
              "internalType": "bool",
              "name": "canceled",
              "type": "bool"
            }
          ],
          "internalType": "struct Marketplace.MarketItem[]",
          "name": "",
          "type": "tuple[]"
        }
      ],
      "stateMutability": "view",
      "type": "function"
    },
    {
      "inputs": [
        {
          "internalType": "address",
          "name": "nftContractAddress",
          "type": "address"
        },
        {
          "internalType": "uint256",
          "name": "_tokenid",
          "type": "uint256"
        }
      ],
      "name": "getAddressOwnerTokenid",
      "outputs": [
        {
          "internalType": "address",
          "name": "",
          "type": "address"
        }
      ],
      "stateMutability": "view",
      "type": "function"
    },
    {
      "inputs": [
        {
          "internalType": "uint256",
          "name": "tokenId",
          "type": "uint256"
        }
      ],
      "name": "getLatestMarketItemByTokenId",
      "outputs": [
        {
          "components": [
            {
              "internalType": "uint256",
              "name": "marketItemId",
              "type": "uint256"
            },
            {
              "internalType": "address",
              "name": "nftContractAddress",
              "type": "address"
            },
            {
              "internalType": "uint256",
              "name": "tokenId",
              "type": "uint256"
            },
            {
              "internalType": "address payable",
              "name": "creator",
              "type": "address"
            },
            {
              "internalType": "address payable",
              "name": "seller",
              "type": "address"
            },
            {
              "internalType": "address payable",
              "name": "owner",
              "type": "address"
            },
            {
              "internalType": "string",
              "name": "name",
              "type": "string"
            },
            {
              "internalType": "uint256",
              "name": "price",
              "type": "uint256"
            },
            {
              "internalType": "uint256",
              "name": "_type",
              "type": "uint256"
            },
            {
              "internalType": "bool",
              "name": "sold",
              "type": "bool"
            },
            {
              "internalType": "bool",
              "name": "canceled",
              "type": "bool"
            }
          ],
          "internalType": "struct Marketplace.MarketItem",
          "name": "",
          "type": "tuple"
        },
        {
          "internalType": "bool",
          "name": "",
          "type": "bool"
        }
      ],
      "stateMutability": "view",
      "type": "function"
    },
    {
      "inputs": [],
      "name": "getListingFee",
      "outputs": [
        {
          "internalType": "uint256",
          "name": "",
          "type": "uint256"
        }
      ],
      "stateMutability": "view",
      "type": "function"
    }
  ],
  "bytecode": "0x6080604052669fdf42f6e4800060055534801561001b57600080fd5b50600160008190555033600460006101000a81548173ffffffffffffffffffffffffffffffffffffffff021916908373ffffffffffffffffffffffffffffffffffffffff1602179055506136c1806100746000396000f3fe60806040526004361061009c5760003560e01c8063599ba23411610064578063599ba2341461019c5780636f9b4920146101cc578063b3e3c42f1461020a578063b8fe6abe14610226578063c23b139e14610251578063cd90fdf41461026d5761009c565b80630203c823146100a15780630e01c969146100cc5780631fdb003a146100f757806331f7edc9146101345780634cf2a06914610171575b600080fd5b3480156100ad57600080fd5b506100b66102aa565b6040516100c39190612897565b60405180910390f35b3480156100d857600080fd5b506100e16102ef565b6040516100ee9190612897565b60405180910390f35b34801561010357600080fd5b5061011e60048036038101906101199190612925565b61069f565b60405161012b9190612974565b60405180910390f35b34801561014057600080fd5b5061015b6004803603810190610156919061298f565b610723565b6040516101689190612897565b60405180910390f35b34801561017d57600080fd5b50610186610d2a565b6040516101939190612897565b60405180910390f35b6101b660048036038101906101b191906129bc565b610d6f565b6040516101c39190612a32565b60405180910390f35b3480156101d857600080fd5b506101f360048036038101906101ee919061298f565b611218565b604051610201929190612b4b565b60405180910390f35b610224600480360381019061021f9190612925565b6114f4565b005b34801561023257600080fd5b5061023b611708565b6040516102489190612a32565b60405180910390f35b61026b60048036038101906102669190612925565b611712565b005b34801561027957600080fd5b50610294600480360381019061028f9190612cb0565b611985565b6040516102a19190612897565b60405180910390f35b60606102ea6040518060400160405280600581526020017f6f776e6572000000000000000000000000000000000000000000000000000000815250611985565b905090565b606060006102fd6001612313565b9050600061030b6002612313565b905060006103196003612313565b9050600081838561032a9190612d28565b6103349190612d28565b905060008167ffffffffffffffff81111561035257610351612b85565b5b60405190808252806020026020018201604052801561038b57816020015b61037861250a565b8152602001906001900390816103705790505b5090506000805b86811015610692576000600660006001846103ad9190612d5c565b815260200190815260200160002060405180610160016040529081600082015481526020016001820160009054906101000a900473ffffffffffffffffffffffffffffffffffffffff1673ffffffffffffffffffffffffffffffffffffffff1673ffffffffffffffffffffffffffffffffffffffff168152602001600282015481526020016003820160009054906101000a900473ffffffffffffffffffffffffffffffffffffffff1673ffffffffffffffffffffffffffffffffffffffff1673ffffffffffffffffffffffffffffffffffffffff1681526020016004820160009054906101000a900473ffffffffffffffffffffffffffffffffffffffff1673ffffffffffffffffffffffffffffffffffffffff1673ffffffffffffffffffffffffffffffffffffffff1681526020016005820160009054906101000a900473ffffffffffffffffffffffffffffffffffffffff1673ffffffffffffffffffffffffffffffffffffffff1673ffffffffffffffffffffffffffffffffffffffff16815260200160068201805461054390612dbf565b80601f016020809104026020016040519081016040528092919081815260200182805461056f90612dbf565b80156105bc5780601f10610591576101008083540402835291602001916105bc565b820191906000526020600020905b81548152906001019060200180831161059f57829003601f168201915b5050505050815260200160078201548152602001600882015481526020016009820160009054906101000a900460ff161515151581526020016009820160019054906101000a900460ff1615151515815250509050600073ffffffffffffffffffffffffffffffffffffffff168160a0015173ffffffffffffffffffffffffffffffffffffffff161461064f575061067f565b8084848151811061066357610662612df0565b5b602002602001018190525060018361067b9190612d5c565b9250505b808061068a90612e1f565b915050610392565b5081965050505050505090565b60008273ffffffffffffffffffffffffffffffffffffffff1663867d3397836040518263ffffffff1660e01b81526004016106da9190612a32565b602060405180830381865afa1580156106f7573d6000803e3d6000fd5b505050506040513d601f19601f8201168201806040525081019061071b9190612e7c565b905092915050565b606060006107316001612313565b905060008060005b838110156109ed576000600660006001846107549190612d5c565b815260200190815260200160002060405180610160016040529081600082015481526020016001820160009054906101000a900473ffffffffffffffffffffffffffffffffffffffff1673ffffffffffffffffffffffffffffffffffffffff1673ffffffffffffffffffffffffffffffffffffffff168152602001600282015481526020016003820160009054906101000a900473ffffffffffffffffffffffffffffffffffffffff1673ffffffffffffffffffffffffffffffffffffffff1673ffffffffffffffffffffffffffffffffffffffff1681526020016004820160009054906101000a900473ffffffffffffffffffffffffffffffffffffffff1673ffffffffffffffffffffffffffffffffffffffff1673ffffffffffffffffffffffffffffffffffffffff1681526020016005820160009054906101000a900473ffffffffffffffffffffffffffffffffffffffff1673ffffffffffffffffffffffffffffffffffffffff1673ffffffffffffffffffffffffffffffffffffffff1681526020016006820180546108ea90612dbf565b80601f016020809104026020016040519081016040528092919081815260200182805461091690612dbf565b80156109635780601f1061093857610100808354040283529160200191610963565b820191906000526020600020905b81548152906001019060200180831161094657829003601f168201915b5050505050815260200160078201548152602001600882015481526020016009820160009054906101000a900460ff161515151581526020016009820160019054906101000a900460ff161515151581525050905086816101000151146109ca57506109da565b83806109d590612e1f565b945050505b80806109e590612e1f565b915050610739565b5060008267ffffffffffffffff811115610a0a57610a09612b85565b5b604051908082528060200260200182016040528015610a4357816020015b610a3061250a565b815260200190600190039081610a285790505b50905060005b84811015610d1d57600060066000600184610a649190612d5c565b815260200190815260200160002060405180610160016040529081600082015481526020016001820160009054906101000a900473ffffffffffffffffffffffffffffffffffffffff1673ffffffffffffffffffffffffffffffffffffffff1673ffffffffffffffffffffffffffffffffffffffff168152602001600282015481526020016003820160009054906101000a900473ffffffffffffffffffffffffffffffffffffffff1673ffffffffffffffffffffffffffffffffffffffff1673ffffffffffffffffffffffffffffffffffffffff1681526020016004820160009054906101000a900473ffffffffffffffffffffffffffffffffffffffff1673ffffffffffffffffffffffffffffffffffffffff1673ffffffffffffffffffffffffffffffffffffffff1681526020016005820160009054906101000a900473ffffffffffffffffffffffffffffffffffffffff1673ffffffffffffffffffffffffffffffffffffffff1673ffffffffffffffffffffffffffffffffffffffff168152602001600682018054610bfa90612dbf565b80601f0160208091040260200160405190810160405280929190818152602001828054610c2690612dbf565b8015610c735780601f10610c4857610100808354040283529160200191610c73565b820191906000526020600020905b815481529060010190602001808311610c5657829003601f168201915b5050505050815260200160078201548152602001600882015481526020016009820160009054906101000a900460ff161515151581526020016009820160019054906101000a900460ff16151515158152505090508781610100015114610cda5750610d0a565b80838581518110610cee57610ced612df0565b5b6020026020010181905250600184610d069190612d5c565b9350505b8080610d1590612e1f565b915050610a49565b5080945050505050919050565b6060610d6a6040518060400160405280600681526020017f73656c6c65720000000000000000000000000000000000000000000000000000815250611985565b905090565b6000610d79612321565b60008311610dbc576040517f08c379a0000000000000000000000000000000000000000000000000000000008152600401610db390612f06565b60405180910390fd5b610dc66001612370565b6000610dd26001612313565b905060008673ffffffffffffffffffffffffffffffffffffffff1663867d3397876040518263ffffffff1660e01b8152600401610e0f9190612a32565b602060405180830381865afa158015610e2c573d6000803e3d6000fd5b505050506040513d601f19601f82011682018060405250810190610e509190612e7c565b905060008773ffffffffffffffffffffffffffffffffffffffff1663c87b56dd886040518263ffffffff1660e01b8152600401610e8d9190612a32565b600060405180830381865afa158015610eaa573d6000803e3d6000fd5b505050506040513d6000823e3d601f19601f82011682018060405250810190610ed39190612f96565b90506040518061016001604052808481526020018973ffffffffffffffffffffffffffffffffffffffff1681526020018881526020018373ffffffffffffffffffffffffffffffffffffffff1681526020013373ffffffffffffffffffffffffffffffffffffffff168152602001600073ffffffffffffffffffffffffffffffffffffffff16815260200182815260200187815260200186815260200160001515815260200160001515815250600660008581526020019081526020016000206000820151816000015560208201518160010160006101000a81548173ffffffffffffffffffffffffffffffffffffffff021916908373ffffffffffffffffffffffffffffffffffffffff1602179055506040820151816002015560608201518160030160006101000a81548173ffffffffffffffffffffffffffffffffffffffff021916908373ffffffffffffffffffffffffffffffffffffffff16021790555060808201518160040160006101000a81548173ffffffffffffffffffffffffffffffffffffffff021916908373ffffffffffffffffffffffffffffffffffffffff16021790555060a08201518160050160006101000a81548173ffffffffffffffffffffffffffffffffffffffff021916908373ffffffffffffffffffffffffffffffffffffffff16021790555060c08201518160060190816110d8919061318b565b5060e0820151816007015561010082015181600801556101208201518160090160006101000a81548160ff0219169083151502179055506101408201518160090160016101000a81548160ff0219169083151502179055509050508773ffffffffffffffffffffffffffffffffffffffff166323b872dd33308a6040518463ffffffff1660e01b81526004016111709392919061325d565b600060405180830381600087803b15801561118a57600080fd5b505af115801561119e573d6000803e3d6000fd5b50505050868873ffffffffffffffffffffffffffffffffffffffff16847f917c6445125764cf67b4131829e781690312163c95f07508e4812a9cc284250485336000878d8d6000806040516111fa989796959493929190613322565b60405180910390a4829350505050611210612386565b949350505050565b61122061250a565b60008061122d6001612313565b905060008190505b60008111156114dc5760006006600083815260200190815260200160002060405180610160016040529081600082015481526020016001820160009054906101000a900473ffffffffffffffffffffffffffffffffffffffff1673ffffffffffffffffffffffffffffffffffffffff1673ffffffffffffffffffffffffffffffffffffffff168152602001600282015481526020016003820160009054906101000a900473ffffffffffffffffffffffffffffffffffffffff1673ffffffffffffffffffffffffffffffffffffffff1673ffffffffffffffffffffffffffffffffffffffff1681526020016004820160009054906101000a900473ffffffffffffffffffffffffffffffffffffffff1673ffffffffffffffffffffffffffffffffffffffff1673ffffffffffffffffffffffffffffffffffffffff1681526020016005820160009054906101000a900473ffffffffffffffffffffffffffffffffffffffff1673ffffffffffffffffffffffffffffffffffffffff1673ffffffffffffffffffffffffffffffffffffffff1681526020016006820180546113db90612dbf565b80601f016020809104026020016040519081016040528092919081815260200182805461140790612dbf565b80156114545780601f1061142957610100808354040283529160200191611454565b820191906000526020600020905b81548152906001019060200180831161143757829003601f168201915b5050505050815260200160078201548152602001600882015481526020016009820160009054906101000a900460ff161515151581526020016009820160019054906101000a900460ff1615151515815250509050858160400151146114ba57506114c9565b806001945094505050506114ef565b80806114d4906133a7565b915050611235565b506114e561250a565b8060009350935050505b915091565b6114fc612321565b6000600660008381526020019081526020016000206002015490506000811161155a576040517f08c379a00000000000000000000000000000000000000000000000000000000081526004016115519061341c565b60405180910390fd5b3373ffffffffffffffffffffffffffffffffffffffff166006600084815260200190815260200160002060040160009054906101000a900473ffffffffffffffffffffffffffffffffffffffff1673ffffffffffffffffffffffffffffffffffffffff16146115fe576040517f08c379a00000000000000000000000000000000000000000000000000000000081526004016115f590613488565b60405180910390fd5b8273ffffffffffffffffffffffffffffffffffffffff166323b872dd3033846040518463ffffffff1660e01b815260040161163b9392919061325d565b600060405180830381600087803b15801561165557600080fd5b505af1158015611669573d6000803e3d6000fd5b50505050336006600084815260200190815260200160002060050160006101000a81548173ffffffffffffffffffffffffffffffffffffffff021916908373ffffffffffffffffffffffffffffffffffffffff16021790555060016006600084815260200190815260200160002060090160016101000a81548160ff0219169083151502179055506116fb6003612370565b50611704612386565b5050565b6000600554905090565b61171a612321565b600060066000838152602001908152602001600020600701549050600060066000848152602001908152602001600020600201549050813414611792576040517f08c379a00000000000000000000000000000000000000000000000000000000081526004016117899061351a565b60405180910390fd5b336006600085815260200190815260200160002060050160006101000a81548173ffffffffffffffffffffffffffffffffffffffff021916908373ffffffffffffffffffffffffffffffffffffffff16021790555060016006600085815260200190815260200160002060090160006101000a81548160ff0219169083151502179055506006600084815260200190815260200160002060040160009054906101000a900473ffffffffffffffffffffffffffffffffffffffff1673ffffffffffffffffffffffffffffffffffffffff166108fc349081150290604051600060405180830381858888f19350505050158015611892573d6000803e3d6000fd5b508373ffffffffffffffffffffffffffffffffffffffff166323b872dd3033846040518463ffffffff1660e01b81526004016118d09392919061325d565b600060405180830381600087803b1580156118ea57600080fd5b505af11580156118fe573d6000803e3d6000fd5b5050505061190c6002612370565b600460009054906101000a900473ffffffffffffffffffffffffffffffffffffffff1673ffffffffffffffffffffffffffffffffffffffff166108fc6005549081150290604051600060405180830381858888f19350505050158015611976573d6000803e3d6000fd5b505050611981612386565b5050565b60606119c6826040518060400160405280600681526020017f73656c6c65720000000000000000000000000000000000000000000000000000815250612390565b80611a0c5750611a0b826040518060400160405280600581526020017f6f776e6572000000000000000000000000000000000000000000000000000000815250612390565b5b611a4b576040517f08c379a0000000000000000000000000000000000000000000000000000000008152600401611a42906135ac565b60405180910390fd5b6000611a576001612313565b905060008060005b83811015611d4b57600060066000600184611a7a9190612d5c565b815260200190815260200160002090506000611cea8260405180610160016040529081600082015481526020016001820160009054906101000a900473ffffffffffffffffffffffffffffffffffffffff1673ffffffffffffffffffffffffffffffffffffffff1673ffffffffffffffffffffffffffffffffffffffff168152602001600282015481526020016003820160009054906101000a900473ffffffffffffffffffffffffffffffffffffffff1673ffffffffffffffffffffffffffffffffffffffff1673ffffffffffffffffffffffffffffffffffffffff1681526020016004820160009054906101000a900473ffffffffffffffffffffffffffffffffffffffff1673ffffffffffffffffffffffffffffffffffffffff1673ffffffffffffffffffffffffffffffffffffffff1681526020016005820160009054906101000a900473ffffffffffffffffffffffffffffffffffffffff1673ffffffffffffffffffffffffffffffffffffffff1673ffffffffffffffffffffffffffffffffffffffff168152602001600682018054611c1890612dbf565b80601f0160208091040260200160405190810160405280929190818152602001828054611c4490612dbf565b8015611c915780601f10611c6657610100808354040283529160200191611c91565b820191906000526020600020905b815481529060010190602001808311611c7457829003601f168201915b5050505050815260200160078201548152602001600882015481526020016009820160009054906101000a900460ff161515151581526020016009820160019054906101000a900460ff161515151581525050896123e9565b90503373ffffffffffffffffffffffffffffffffffffffff168173ffffffffffffffffffffffffffffffffffffffff1614611d26575050611d38565b600185611d339190612d5c565b945050505b8080611d4390612e1f565b915050611a5f565b5060008267ffffffffffffffff811115611d6857611d67612b85565b5b604051908082528060200260200182016040528015611da157816020015b611d8e61250a565b815260200190600190039081611d865790505b50905060005b8481101561230657600060066000600184611dc29190612d5c565b8152602001908152602001600020905060006120328260405180610160016040529081600082015481526020016001820160009054906101000a900473ffffffffffffffffffffffffffffffffffffffff1673ffffffffffffffffffffffffffffffffffffffff1673ffffffffffffffffffffffffffffffffffffffff168152602001600282015481526020016003820160009054906101000a900473ffffffffffffffffffffffffffffffffffffffff1673ffffffffffffffffffffffffffffffffffffffff1673ffffffffffffffffffffffffffffffffffffffff1681526020016004820160009054906101000a900473ffffffffffffffffffffffffffffffffffffffff1673ffffffffffffffffffffffffffffffffffffffff1673ffffffffffffffffffffffffffffffffffffffff1681526020016005820160009054906101000a900473ffffffffffffffffffffffffffffffffffffffff1673ffffffffffffffffffffffffffffffffffffffff1673ffffffffffffffffffffffffffffffffffffffff168152602001600682018054611f6090612dbf565b80601f0160208091040260200160405190810160405280929190818152602001828054611f8c90612dbf565b8015611fd95780601f10611fae57610100808354040283529160200191611fd9565b820191906000526020600020905b815481529060010190602001808311611fbc57829003601f168201915b5050505050815260200160078201548152602001600882015481526020016009820160009054906101000a900460ff161515151581526020016009820160019054906101000a900460ff1615151515815250508a6123e9565b90503373ffffffffffffffffffffffffffffffffffffffff168173ffffffffffffffffffffffffffffffffffffffff161461206e5750506122f3565b8160405180610160016040529081600082015481526020016001820160009054906101000a900473ffffffffffffffffffffffffffffffffffffffff1673ffffffffffffffffffffffffffffffffffffffff1673ffffffffffffffffffffffffffffffffffffffff168152602001600282015481526020016003820160009054906101000a900473ffffffffffffffffffffffffffffffffffffffff1673ffffffffffffffffffffffffffffffffffffffff1673ffffffffffffffffffffffffffffffffffffffff1681526020016004820160009054906101000a900473ffffffffffffffffffffffffffffffffffffffff1673ffffffffffffffffffffffffffffffffffffffff1673ffffffffffffffffffffffffffffffffffffffff1681526020016005820160009054906101000a900473ffffffffffffffffffffffffffffffffffffffff1673ffffffffffffffffffffffffffffffffffffffff1673ffffffffffffffffffffffffffffffffffffffff1681526020016006820180546121f790612dbf565b80601f016020809104026020016040519081016040528092919081815260200182805461222390612dbf565b80156122705780601f1061224557610100808354040283529160200191612270565b820191906000526020600020905b81548152906001019060200180831161225357829003601f168201915b5050505050815260200160078201548152602001600882015481526020016009820160009054906101000a900460ff161515151581526020016009820160019054906101000a900460ff1615151515815250508486815181106122d6576122d5612df0565b5b60200260200101819052506001856122ee9190612d5c565b945050505b80806122fe90612e1f565b915050611da7565b5080945050505050919050565b600081600001549050919050565b600260005403612366576040517f08c379a000000000000000000000000000000000000000000000000000000000815260040161235d90613618565b60405180910390fd5b6002600081905550565b6001816000016000828254019250508190555050565b6001600081905550565b6000816040516020016123a39190613674565b60405160208183030381529060405280519060200120836040516020016123ca9190613674565b6040516020818303038152906040528051906020012014905092915050565b600061242a826040518060400160405280600681526020017f73656c6c65720000000000000000000000000000000000000000000000000000815250612390565b80612470575061246f826040518060400160405280600581526020017f6f776e6572000000000000000000000000000000000000000000000000000000815250612390565b5b6124af576040517f08c379a00000000000000000000000000000000000000000000000000000000081526004016124a6906135ac565b60405180910390fd5b6124ee826040518060400160405280600681526020017f73656c6c65720000000000000000000000000000000000000000000000000000815250612390565b6124fc578260a00151612502565b82608001515b905092915050565b60405180610160016040528060008152602001600073ffffffffffffffffffffffffffffffffffffffff16815260200160008152602001600073ffffffffffffffffffffffffffffffffffffffff168152602001600073ffffffffffffffffffffffffffffffffffffffff168152602001600073ffffffffffffffffffffffffffffffffffffffff1681526020016060815260200160008152602001600081526020016000151581526020016000151581525090565b600081519050919050565b600082825260208201905092915050565b6000819050602082019050919050565b6000819050919050565b6125ff816125ec565b82525050565b600073ffffffffffffffffffffffffffffffffffffffff82169050919050565b600061263082612605565b9050919050565b61264081612625565b82525050565b600061265182612605565b9050919050565b61266181612646565b82525050565b600081519050919050565b600082825260208201905092915050565b60005b838110156126a1578082015181840152602081019050612686565b60008484015250505050565b6000601f19601f8301169050919050565b60006126c982612667565b6126d38185612672565b93506126e3818560208601612683565b6126ec816126ad565b840191505092915050565b60008115159050919050565b61270c816126f7565b82525050565b60006101608301600083015161272b60008601826125f6565b50602083015161273e6020860182612637565b50604083015161275160408601826125f6565b5060608301516127646060860182612658565b5060808301516127776080860182612658565b5060a083015161278a60a0860182612658565b5060c083015184820360c08601526127a282826126be565b91505060e08301516127b760e08601826125f6565b506101008301516127cc6101008601826125f6565b506101208301516127e1610120860182612703565b506101408301516127f6610140860182612703565b508091505092915050565b600061280d8383612712565b905092915050565b6000602082019050919050565b600061282d826125c0565b61283781856125cb565b935083602082028501612849856125dc565b8060005b8581101561288557848403895281516128668582612801565b945061287183612815565b925060208a0199505060018101905061284d565b50829750879550505050505092915050565b600060208201905081810360008301526128b18184612822565b905092915050565b6000604051905090565b600080fd5b600080fd5b6128d681612625565b81146128e157600080fd5b50565b6000813590506128f3816128cd565b92915050565b612902816125ec565b811461290d57600080fd5b50565b60008135905061291f816128f9565b92915050565b6000806040838503121561293c5761293b6128c3565b5b600061294a858286016128e4565b925050602061295b85828601612910565b9150509250929050565b61296e81612625565b82525050565b60006020820190506129896000830184612965565b92915050565b6000602082840312156129a5576129a46128c3565b5b60006129b384828501612910565b91505092915050565b600080600080608085870312156129d6576129d56128c3565b5b60006129e4878288016128e4565b94505060206129f587828801612910565b9350506040612a0687828801612910565b9250506060612a1787828801612910565b91505092959194509250565b612a2c816125ec565b82525050565b6000602082019050612a476000830184612a23565b92915050565b600061016083016000830151612a6660008601826125f6565b506020830151612a796020860182612637565b506040830151612a8c60408601826125f6565b506060830151612a9f6060860182612658565b506080830151612ab26080860182612658565b5060a0830151612ac560a0860182612658565b5060c083015184820360c0860152612add82826126be565b91505060e0830151612af260e08601826125f6565b50610100830151612b076101008601826125f6565b50610120830151612b1c610120860182612703565b50610140830151612b31610140860182612703565b508091505092915050565b612b45816126f7565b82525050565b60006040820190508181036000830152612b658185612a4d565b9050612b746020830184612b3c565b9392505050565b600080fd5b600080fd5b7f4e487b7100000000000000000000000000000000000000000000000000000000600052604160045260246000fd5b612bbd826126ad565b810181811067ffffffffffffffff82111715612bdc57612bdb612b85565b5b80604052505050565b6000612bef6128b9565b9050612bfb8282612bb4565b919050565b600067ffffffffffffffff821115612c1b57612c1a612b85565b5b612c24826126ad565b9050602081019050919050565b82818337600083830152505050565b6000612c53612c4e84612c00565b612be5565b905082815260208101848484011115612c6f57612c6e612b80565b5b612c7a848285612c31565b509392505050565b600082601f830112612c9757612c96612b7b565b5b8135612ca7848260208601612c40565b91505092915050565b600060208284031215612cc657612cc56128c3565b5b600082013567ffffffffffffffff811115612ce457612ce36128c8565b5b612cf084828501612c82565b91505092915050565b7f4e487b7100000000000000000000000000000000000000000000000000000000600052601160045260246000fd5b6000612d33826125ec565b9150612d3e836125ec565b9250828203905081811115612d5657612d55612cf9565b5b92915050565b6000612d67826125ec565b9150612d72836125ec565b9250828201905080821115612d8a57612d89612cf9565b5b92915050565b7f4e487b7100000000000000000000000000000000000000000000000000000000600052602260045260246000fd5b60006002820490506001821680612dd757607f821691505b602082108103612dea57612de9612d90565b5b50919050565b7f4e487b7100000000000000000000000000000000000000000000000000000000600052603260045260246000fd5b6000612e2a826125ec565b91507fffffffffffffffffffffffffffffffffffffffffffffffffffffffffffffffff8203612e5c57612e5b612cf9565b5b600182019050919050565b600081519050612e76816128cd565b92915050565b600060208284031215612e9257612e916128c3565b5b6000612ea084828501612e67565b91505092915050565b600082825260208201905092915050565b7f5072696365206d757374206265206174206c6561737420312077656900000000600082015250565b6000612ef0601c83612ea9565b9150612efb82612eba565b602082019050919050565b60006020820190508181036000830152612f1f81612ee3565b9050919050565b6000612f39612f3484612c00565b612be5565b905082815260208101848484011115612f5557612f54612b80565b5b612f60848285612683565b509392505050565b600082601f830112612f7d57612f7c612b7b565b5b8151612f8d848260208601612f26565b91505092915050565b600060208284031215612fac57612fab6128c3565b5b600082015167ffffffffffffffff811115612fca57612fc96128c8565b5b612fd684828501612f68565b91505092915050565b60008190508160005260206000209050919050565b60006020601f8301049050919050565b600082821b905092915050565b6000600883026130417fffffffffffffffffffffffffffffffffffffffffffffffffffffffffffffffff82613004565b61304b8683613004565b95508019841693508086168417925050509392505050565b6000819050919050565b600061308861308361307e846125ec565b613063565b6125ec565b9050919050565b6000819050919050565b6130a28361306d565b6130b66130ae8261308f565b848454613011565b825550505050565b600090565b6130cb6130be565b6130d6818484613099565b505050565b5b818110156130fa576130ef6000826130c3565b6001810190506130dc565b5050565b601f82111561313f5761311081612fdf565b61311984612ff4565b81016020851015613128578190505b61313c61313485612ff4565b8301826130db565b50505b505050565b600082821c905092915050565b600061316260001984600802613144565b1980831691505092915050565b600061317b8383613151565b9150826002028217905092915050565b61319482612667565b67ffffffffffffffff8111156131ad576131ac612b85565b5b6131b78254612dbf565b6131c28282856130fe565b600060209050601f8311600181146131f557600084156131e3578287015190505b6131ed858261316f565b865550613255565b601f19841661320386612fdf565b60005b8281101561322b57848901518255600182019150602085019450602081019050613206565b868310156132485784890151613244601f891682613151565b8355505b6001600288020188555050505b505050505050565b60006060820190506132726000830186612965565b61327f6020830185612965565b61328c6040830184612a23565b949350505050565b60006132af6132aa6132a584612605565b613063565b612605565b9050919050565b60006132c182613294565b9050919050565b60006132d3826132b6565b9050919050565b6132e3816132c8565b82525050565b60006132f482612667565b6132fe8185612ea9565b935061330e818560208601612683565b613317816126ad565b840191505092915050565b600061010082019050613338600083018b6132da565b613345602083018a6132da565b61335260408301896132da565b818103606083015261336481886132e9565b90506133736080830187612a23565b61338060a0830186612a23565b61338d60c0830185612b3c565b61339a60e0830184612b3c565b9998505050505050505050565b60006133b2826125ec565b9150600082036133c5576133c4612cf9565b5b600182039050919050565b7f4d61726b6574206974656d2068617320746f2065786973740000000000000000600082015250565b6000613406601883612ea9565b9150613411826133d0565b602082019050919050565b60006020820190508181036000830152613435816133f9565b9050919050565b7f596f7520617265206e6f74207468652073656c6c657200000000000000000000600082015250565b6000613472601683612ea9565b915061347d8261343c565b602082019050919050565b600060208201905081810360008301526134a181613465565b9050919050565b7f506c65617365207375626d6974207468652061736b696e67207072696365206960008201527f6e206f7264657220746f20636f6e74696e756500000000000000000000000000602082015250565b6000613504603383612ea9565b915061350f826134a8565b604082019050919050565b60006020820190508181036000830152613533816134f7565b9050919050565b7f506172616d65746572206d757374206265202773656c6c657227206f7220276f60008201527f776e657227000000000000000000000000000000000000000000000000000000602082015250565b6000613596602583612ea9565b91506135a18261353a565b604082019050919050565b600060208201905081810360008301526135c581613589565b9050919050565b7f5265656e7472616e637947756172643a207265656e7472616e742063616c6c00600082015250565b6000613602601f83612ea9565b915061360d826135cc565b602082019050919050565b60006020820190508181036000830152613631816135f5565b9050919050565b600081905092915050565b600061364e82612667565b6136588185613638565b9350613668818560208601612683565b80840191505092915050565b60006136808284613643565b91508190509291505056fea264697066735822122036c9fba315137648c490040da3705c7c8a7dd3e87836a870ffd761642a39bce564736f6c63430008130033",
  "linkReferences": {},
  "deployedLinkReferences": {}
}